{"abi":[{"type":"constructor","inputs":[{"name":"pricefeed","type":"address","internalType":"address"}],"stateMutability":"nonpayable"},{"type":"fallback","stateMutability":"payable"},{"type":"receive","stateMutability":"payable"},{"type":"function","name":"MINIMUM_USD","inputs":[],"outputs":[{"name":"","type":"uint256","internalType":"uint256"}],"stateMutability":"view"},{"type":"function","name":"cheaperWithdraw","inputs":[],"outputs":[],"stateMutability":"nonpayable"},{"type":"function","name":"fund","inputs":[],"outputs":[],"stateMutability":"payable"},{"type":"function","name":"getAddressToAmountFunded","inputs":[{"name":"fundingAddress","type":"address","internalType":"address"}],"outputs":[{"name":"","type":"uint256","internalType":"uint256"}],"stateMutability":"view"},{"type":"function","name":"getFunder","inputs":[{"name":"index","type":"uint256","internalType":"uint256"}],"outputs":[{"name":"","type":"address","internalType":"address"}],"stateMutability":"view"},{"type":"function","name":"getOwner","inputs":[],"outputs":[{"name":"","type":"address","internalType":"address"}],"stateMutability":"view"},{"type":"function","name":"getVersion","inputs":[],"outputs":[{"name":"","type":"uint256","internalType":"uint256"}],"stateMutability":"view"},{"type":"function","name":"withdraw","inputs":[],"outputs":[],"stateMutability":"nonpayable"},{"type":"error","name":"Fundme_NotOwner","inputs":[]}],"bytecode":{"object":"0x608060405234801561000f575f5ffd5b506040516110e83803806110e883398181016040528101906100319190610115565b3360025f6101000a81548173ffffffffffffffffffffffffffffffffffffffff021916908373ffffffffffffffffffffffffffffffffffffffff1602179055508060035f6101000a81548173ffffffffffffffffffffffffffffffffffffffff021916908373ffffffffffffffffffffffffffffffffffffffff16021790555050610140565b5f5ffd5b5f73ffffffffffffffffffffffffffffffffffffffff82169050919050565b5f6100e4826100bb565b9050919050565b6100f4816100da565b81146100fe575f5ffd5b50565b5f8151905061010f816100eb565b92915050565b5f6020828403121561012a576101296100b7565b5b5f61013784828501610101565b91505092915050565b610f9b8061014d5f395ff3fe60806040526004361061007e575f3560e01c8063893d20e81161004d578063893d20e81461013d578063b60d428814610167578063be2693f014610171578063d7b4750c146101875761008d565b80630343fb25146100975780630d8e6e2c146100d35780633ccfd60b146100fd5780636b69a592146101135761008d565b3661008d5761008b6101c3565b005b6100956101c3565b005b3480156100a2575f5ffd5b506100bd60048036038101906100b89190610a75565b6102f5565b6040516100ca9190610ab8565b60405180910390f35b3480156100de575f5ffd5b506100e761033a565b6040516100f49190610ab8565b60405180910390f35b348015610108575f5ffd5b506101116103ce565b005b34801561011e575f5ffd5b506101276105ff565b6040516101349190610ab8565b60405180910390f35b348015610148575f5ffd5b5061015161060b565b60405161015e9190610ae0565b60405180910390f35b61016f6101c3565b005b34801561017c575f5ffd5b50610185610633565b005b348015610192575f5ffd5b506101ad60048036038101906101a89190610b23565b610869565b6040516101ba9190610ae0565b60405180910390f35b674563918244f4000061020060035f9054906101000a900473ffffffffffffffffffffffffffffffffffffffff16346108ad90919063ffffffff16565b1015610241576040517f08c379a000000000000000000000000000000000000000000000000000000000815260040161023890610ba8565b60405180910390fd5b345f5f3373ffffffffffffffffffffffffffffffffffffffff1673ffffffffffffffffffffffffffffffffffffffff1681526020019081526020015f205f82825461028c9190610bf3565b92505081905550600133908060018154018082558091505060019003905f5260205f20015f9091909190916101000a81548173ffffffffffffffffffffffffffffffffffffffff021916908373ffffffffffffffffffffffffffffffffffffffff160217905550565b5f5f5f8373ffffffffffffffffffffffffffffffffffffffff1673ffffffffffffffffffffffffffffffffffffffff1681526020019081526020015f20549050919050565b5f60035f9054906101000a900473ffffffffffffffffffffffffffffffffffffffff1673ffffffffffffffffffffffffffffffffffffffff166354fd4d506040518163ffffffff1660e01b8152600401602060405180830381865afa1580156103a5573d5f5f3e3d5ffd5b505050506040513d601f19601f820116820180604052508101906103c99190610c3a565b905090565b60025f9054906101000a900473ffffffffffffffffffffffffffffffffffffffff1673ffffffffffffffffffffffffffffffffffffffff163373ffffffffffffffffffffffffffffffffffffffff1614610454576040517f87b53d7100000000000000000000000000000000000000000000000000000000815260040160405180910390fd5b5f5f90505b6001805490508110156104f4575f6001828154811061047b5761047a610c65565b5b905f5260205f20015f9054906101000a900473ffffffffffffffffffffffffffffffffffffffff1690505f5f5f8373ffffffffffffffffffffffffffffffffffffffff1673ffffffffffffffffffffffffffffffffffffffff1681526020019081526020015f2081905550508080600101915050610459565b505f67ffffffffffffffff81111561050f5761050e610c92565b5b60405190808252806020026020018201604052801561053d5781602001602082028036833780820191505090505b5060019080519060200190610553929190610975565b505f3373ffffffffffffffffffffffffffffffffffffffff164760405161057990610cec565b5f6040518083038185875af1925050503d805f81146105b3576040519150601f19603f3d011682016040523d82523d5f602084013e6105b8565b606091505b50509050806105fc576040517f08c379a00000000000000000000000000000000000000000000000000000000081526004016105f390610d4a565b60405180910390fd5b50565b674563918244f4000081565b5f60025f9054906101000a900473ffffffffffffffffffffffffffffffffffffffff16905090565b60025f9054906101000a900473ffffffffffffffffffffffffffffffffffffffff1673ffffffffffffffffffffffffffffffffffffffff163373ffffffffffffffffffffffffffffffffffffffff16146106b9576040517f87b53d7100000000000000000000000000000000000000000000000000000000815260040160405180910390fd5b5f60018054905090505f5f90505b8181101561075d575f600182815481106106e4576106e3610c65565b5b905f5260205f20015f9054906101000a900473ffffffffffffffffffffffffffffffffffffffff1690505f5f5f8373ffffffffffffffffffffffffffffffffffffffff1673ffffffffffffffffffffffffffffffffffffffff1681526020019081526020015f20819055505080806001019150506106c7565b505f67ffffffffffffffff81111561077857610777610c92565b5b6040519080825280602002602001820160405280156107a65781602001602082028036833780820191505090505b50600190805190602001906107bc929190610975565b505f3373ffffffffffffffffffffffffffffffffffffffff16476040516107e290610cec565b5f6040518083038185875af1925050503d805f811461081c576040519150601f19603f3d011682016040523d82523d5f602084013e610821565b606091505b5050905080610865576040517f08c379a000000000000000000000000000000000000000000000000000000000815260040161085c90610d4a565b60405180910390fd5b5050565b5f6001828154811061087e5761087d610c65565b5b905f5260205f20015f9054906101000a900473ffffffffffffffffffffffffffffffffffffffff169050919050565b5f5f6108b8836108e7565b90505f670de0b6b3a764000085836108d09190610d68565b6108da9190610dd6565b9050809250505092915050565b5f5f8273ffffffffffffffffffffffffffffffffffffffff1663feaf968c6040518163ffffffff1660e01b815260040160a060405180830381865afa158015610932573d5f5f3e3d5ffd5b505050506040513d601f19601f820116820180604052508101906109569190610e78565b5050509150506402540be4008161096d9190610eef565b915050919050565b828054828255905f5260205f209081019282156109eb579160200282015b828111156109ea578251825f6101000a81548173ffffffffffffffffffffffffffffffffffffffff021916908373ffffffffffffffffffffffffffffffffffffffff16021790555091602001919060010190610993565b5b5090506109f891906109fc565b5090565b5b80821115610a13575f815f9055506001016109fd565b5090565b5f5ffd5b5f73ffffffffffffffffffffffffffffffffffffffff82169050919050565b5f610a4482610a1b565b9050919050565b610a5481610a3a565b8114610a5e575f5ffd5b50565b5f81359050610a6f81610a4b565b92915050565b5f60208284031215610a8a57610a89610a17565b5b5f610a9784828501610a61565b91505092915050565b5f819050919050565b610ab281610aa0565b82525050565b5f602082019050610acb5f830184610aa9565b92915050565b610ada81610a3a565b82525050565b5f602082019050610af35f830184610ad1565b92915050565b610b0281610aa0565b8114610b0c575f5ffd5b50565b5f81359050610b1d81610af9565b92915050565b5f60208284031215610b3857610b37610a17565b5b5f610b4584828501610b0f565b91505092915050565b5f82825260208201905092915050565b7f596f75206e65656420746f207370656e64206d6f7265204554482100000000005f82015250565b5f610b92601b83610b4e565b9150610b9d82610b5e565b602082019050919050565b5f6020820190508181035f830152610bbf81610b86565b9050919050565b7f4e487b71000000000000000000000000000000000000000000000000000000005f52601160045260245ffd5b5f610bfd82610aa0565b9150610c0883610aa0565b9250828201905080821115610c2057610c1f610bc6565b5b92915050565b5f81519050610c3481610af9565b92915050565b5f60208284031215610c4f57610c4e610a17565b5b5f610c5c84828501610c26565b91505092915050565b7f4e487b71000000000000000000000000000000000000000000000000000000005f52603260045260245ffd5b7f4e487b71000000000000000000000000000000000000000000000000000000005f52604160045260245ffd5b5f81905092915050565b50565b5f610cd75f83610cbf565b9150610ce282610cc9565b5f82019050919050565b5f610cf682610ccc565b9150819050919050565b7f43616c6c206661696c65640000000000000000000000000000000000000000005f82015250565b5f610d34600b83610b4e565b9150610d3f82610d00565b602082019050919050565b5f6020820190508181035f830152610d6181610d28565b9050919050565b5f610d7282610aa0565b9150610d7d83610aa0565b9250828202610d8b81610aa0565b91508282048414831517610da257610da1610bc6565b5b5092915050565b7f4e487b71000000000000000000000000000000000000000000000000000000005f52601260045260245ffd5b5f610de082610aa0565b9150610deb83610aa0565b925082610dfb57610dfa610da9565b5b828204905092915050565b5f69ffffffffffffffffffff82169050919050565b610e2481610e06565b8114610e2e575f5ffd5b50565b5f81519050610e3f81610e1b565b92915050565b5f819050919050565b610e5781610e45565b8114610e61575f5ffd5b50565b5f81519050610e7281610e4e565b92915050565b5f5f5f5f5f60a08688031215610e9157610e90610a17565b5b5f610e9e88828901610e31565b9550506020610eaf88828901610e64565b9450506040610ec088828901610c26565b9350506060610ed188828901610c26565b9250506080610ee288828901610e31565b9150509295509295909350565b5f610ef982610e45565b9150610f0483610e45565b9250828202610f1281610e45565b91507f800000000000000000000000000000000000000000000000000000000000000084145f84121615610f4957610f48610bc6565b5b8282058414831517610f5e57610f5d610bc6565b5b509291505056fea26469706673582212207c4ec8a56617796cbed85b155765a7e90540f700562718cc5526e681600f216e64736f6c634300081d0033","linkReferences":{}},"methodIdentifiers":{"MINIMUM_USD()":"6b69a592","cheaperWithdraw()":"be2693f0","fund()":"b60d4288","getAddressToAmountFunded(address)":"0343fb25","getFunder(uint256)":"d7b4750c","getOwner()":"893d20e8","getVersion()":"0d8e6e2c","withdraw()":"3ccfd60b"},"id":18}