{"abi":[{"type":"constructor","inputs":[{"name":"pricefeed","type":"address","internalType":"address"}],"stateMutability":"nonpayable"},{"type":"fallback","stateMutability":"payable"},{"type":"receive","stateMutability":"payable"},{"type":"function","name":"MINIMUM_USD","inputs":[],"outputs":[{"name":"","type":"uint256","internalType":"uint256"}],"stateMutability":"view"},{"type":"function","name":"cheaperWithdraw","inputs":[],"outputs":[],"stateMutability":"nonpayable"},{"type":"function","name":"fund","inputs":[],"outputs":[],"stateMutability":"payable"},{"type":"function","name":"getAddressToAmountFunded","inputs":[{"name":"fundingAddress","type":"address","internalType":"address"}],"outputs":[{"name":"","type":"uint256","internalType":"uint256"}],"stateMutability":"view"},{"type":"function","name":"getFunder","inputs":[{"name":"index","type":"uint256","internalType":"uint256"}],"outputs":[{"name":"","type":"address","internalType":"address"}],"stateMutability":"view"},{"type":"function","name":"getOwner","inputs":[],"outputs":[{"name":"","type":"address","internalType":"address"}],"stateMutability":"view"},{"type":"function","name":"getVersion","inputs":[],"outputs":[{"name":"","type":"uint256","internalType":"uint256"}],"stateMutability":"view"},{"type":"function","name":"withdraw","inputs":[],"outputs":[],"stateMutability":"nonpayable"},{"type":"error","name":"Fundme_NotOwner","inputs":[]}],"bytecode":{"object":"0x60806040523480156200001157600080fd5b50604051620011d0380380620011d083398181016040528101906200003791906200012a565b33600260006101000a81548173ffffffffffffffffffffffffffffffffffffffff021916908373ffffffffffffffffffffffffffffffffffffffff16021790555080600360006101000a81548173ffffffffffffffffffffffffffffffffffffffff021916908373ffffffffffffffffffffffffffffffffffffffff160217905550506200015c565b600080fd5b600073ffffffffffffffffffffffffffffffffffffffff82169050919050565b6000620000f282620000c5565b9050919050565b6200010481620000e5565b81146200011057600080fd5b50565b6000815190506200012481620000f9565b92915050565b600060208284031215620001435762000142620000c0565b5b6000620001538482850162000113565b91505092915050565b611064806200016c6000396000f3fe60806040526004361061007f5760003560e01c8063893d20e81161004e578063893d20e814610142578063b60d42881461016d578063be2693f014610177578063d7b4750c1461018e5761008e565b80630343fb25146100985780630d8e6e2c146100d55780633ccfd60b146101005780636b69a592146101175761008e565b3661008e5761008c6101cb565b005b6100966101cb565b005b3480156100a457600080fd5b506100bf60048036038101906100ba9190610ac3565b610304565b6040516100cc9190610b09565b60405180910390f35b3480156100e157600080fd5b506100ea61034c565b6040516100f79190610b09565b60405180910390f35b34801561010c57600080fd5b506101156103e4565b005b34801561012357600080fd5b5061012c610626565b6040516101399190610b09565b60405180910390f35b34801561014e57600080fd5b50610157610632565b6040516101649190610b33565b60405180910390f35b6101756101cb565b005b34801561018357600080fd5b5061018c61065c565b005b34801561019a57600080fd5b506101b560048036038101906101b09190610b7a565b6108a4565b6040516101c29190610b33565b60405180910390f35b674563918244f40000610209600360009054906101000a900473ffffffffffffffffffffffffffffffffffffffff16346108ec90919063ffffffff16565b101561024a576040517f08c379a000000000000000000000000000000000000000000000000000000000815260040161024190610c04565b60405180910390fd5b346000803373ffffffffffffffffffffffffffffffffffffffff1673ffffffffffffffffffffffffffffffffffffffff16815260200190815260200160002060008282546102989190610c53565b925050819055506001339080600181540180825580915050600190039060005260206000200160009091909190916101000a81548173ffffffffffffffffffffffffffffffffffffffff021916908373ffffffffffffffffffffffffffffffffffffffff160217905550565b60008060008373ffffffffffffffffffffffffffffffffffffffff1673ffffffffffffffffffffffffffffffffffffffff168152602001908152602001600020549050919050565b6000600360009054906101000a900473ffffffffffffffffffffffffffffffffffffffff1673ffffffffffffffffffffffffffffffffffffffff166354fd4d506040518163ffffffff1660e01b8152600401602060405180830381865afa1580156103bb573d6000803e3d6000fd5b505050506040513d601f19601f820116820180604052508101906103df9190610c9c565b905090565b600260009054906101000a900473ffffffffffffffffffffffffffffffffffffffff1673ffffffffffffffffffffffffffffffffffffffff163373ffffffffffffffffffffffffffffffffffffffff161461046b576040517f87b53d7100000000000000000000000000000000000000000000000000000000815260040160405180910390fd5b60005b6001805490508110156105165760006001828154811061049157610490610cc9565b5b9060005260206000200160009054906101000a900473ffffffffffffffffffffffffffffffffffffffff16905060008060008373ffffffffffffffffffffffffffffffffffffffff1673ffffffffffffffffffffffffffffffffffffffff1681526020019081526020016000208190555050808061050e90610cf8565b91505061046e565b50600067ffffffffffffffff81111561053257610531610d40565b5b6040519080825280602002602001820160405280156105605781602001602082028036833780820191505090505b50600190805190602001906105769291906109b9565b5060003373ffffffffffffffffffffffffffffffffffffffff164760405161059d90610da0565b60006040518083038185875af1925050503d80600081146105da576040519150601f19603f3d011682016040523d82523d6000602084013e6105df565b606091505b5050905080610623576040517f08c379a000000000000000000000000000000000000000000000000000000000815260040161061a90610e01565b60405180910390fd5b50565b674563918244f4000081565b6000600260009054906101000a900473ffffffffffffffffffffffffffffffffffffffff16905090565b600260009054906101000a900473ffffffffffffffffffffffffffffffffffffffff1673ffffffffffffffffffffffffffffffffffffffff163373ffffffffffffffffffffffffffffffffffffffff16146106e3576040517f87b53d7100000000000000000000000000000000000000000000000000000000815260040160405180910390fd5b6000600180549050905060005b818110156107935760006001828154811061070e5761070d610cc9565b5b9060005260206000200160009054906101000a900473ffffffffffffffffffffffffffffffffffffffff16905060008060008373ffffffffffffffffffffffffffffffffffffffff1673ffffffffffffffffffffffffffffffffffffffff1681526020019081526020016000208190555050808061078b90610cf8565b9150506106f0565b50600067ffffffffffffffff8111156107af576107ae610d40565b5b6040519080825280602002602001820160405280156107dd5781602001602082028036833780820191505090505b50600190805190602001906107f39291906109b9565b5060003373ffffffffffffffffffffffffffffffffffffffff164760405161081a90610da0565b60006040518083038185875af1925050503d8060008114610857576040519150601f19603f3d011682016040523d82523d6000602084013e61085c565b606091505b50509050806108a0576040517f08c379a000000000000000000000000000000000000000000000000000000000815260040161089790610e01565b60405180910390fd5b5050565b6000600182815481106108ba576108b9610cc9565b5b9060005260206000200160009054906101000a900473ffffffffffffffffffffffffffffffffffffffff169050919050565b6000806108f883610928565b90506000670de0b6b3a764000085836109119190610e21565b61091b9190610e92565b9050809250505092915050565b6000808273ffffffffffffffffffffffffffffffffffffffff1663feaf968c6040518163ffffffff1660e01b815260040160a060405180830381865afa158015610976573d6000803e3d6000fd5b505050506040513d601f19601f8201168201806040525081019061099a9190610f3b565b5050509150506402540be400816109b19190610fb6565b915050919050565b828054828255906000526020600020908101928215610a32579160200282015b82811115610a315782518260006101000a81548173ffffffffffffffffffffffffffffffffffffffff021916908373ffffffffffffffffffffffffffffffffffffffff160217905550916020019190600101906109d9565b5b509050610a3f9190610a43565b5090565b5b80821115610a5c576000816000905550600101610a44565b5090565b600080fd5b600073ffffffffffffffffffffffffffffffffffffffff82169050919050565b6000610a9082610a65565b9050919050565b610aa081610a85565b8114610aab57600080fd5b50565b600081359050610abd81610a97565b92915050565b600060208284031215610ad957610ad8610a60565b5b6000610ae784828501610aae565b91505092915050565b6000819050919050565b610b0381610af0565b82525050565b6000602082019050610b1e6000830184610afa565b92915050565b610b2d81610a85565b82525050565b6000602082019050610b486000830184610b24565b92915050565b610b5781610af0565b8114610b6257600080fd5b50565b600081359050610b7481610b4e565b92915050565b600060208284031215610b9057610b8f610a60565b5b6000610b9e84828501610b65565b91505092915050565b600082825260208201905092915050565b7f596f75206e65656420746f207370656e64206d6f726520455448210000000000600082015250565b6000610bee601b83610ba7565b9150610bf982610bb8565b602082019050919050565b60006020820190508181036000830152610c1d81610be1565b9050919050565b7f4e487b7100000000000000000000000000000000000000000000000000000000600052601160045260246000fd5b6000610c5e82610af0565b9150610c6983610af0565b9250828201905080821115610c8157610c80610c24565b5b92915050565b600081519050610c9681610b4e565b92915050565b600060208284031215610cb257610cb1610a60565b5b6000610cc084828501610c87565b91505092915050565b7f4e487b7100000000000000000000000000000000000000000000000000000000600052603260045260246000fd5b6000610d0382610af0565b91507fffffffffffffffffffffffffffffffffffffffffffffffffffffffffffffffff8203610d3557610d34610c24565b5b600182019050919050565b7f4e487b7100000000000000000000000000000000000000000000000000000000600052604160045260246000fd5b600081905092915050565b50565b6000610d8a600083610d6f565b9150610d9582610d7a565b600082019050919050565b6000610dab82610d7d565b9150819050919050565b7f43616c6c206661696c6564000000000000000000000000000000000000000000600082015250565b6000610deb600b83610ba7565b9150610df682610db5565b602082019050919050565b60006020820190508181036000830152610e1a81610dde565b9050919050565b6000610e2c82610af0565b9150610e3783610af0565b9250828202610e4581610af0565b91508282048414831517610e5c57610e5b610c24565b5b5092915050565b7f4e487b7100000000000000000000000000000000000000000000000000000000600052601260045260246000fd5b6000610e9d82610af0565b9150610ea883610af0565b925082610eb857610eb7610e63565b5b828204905092915050565b600069ffffffffffffffffffff82169050919050565b610ee281610ec3565b8114610eed57600080fd5b50565b600081519050610eff81610ed9565b92915050565b6000819050919050565b610f1881610f05565b8114610f2357600080fd5b50565b600081519050610f3581610f0f565b92915050565b600080600080600060a08688031215610f5757610f56610a60565b5b6000610f6588828901610ef0565b9550506020610f7688828901610f26565b9450506040610f8788828901610c87565b9350506060610f9888828901610c87565b9250506080610fa988828901610ef0565b9150509295509295909350565b6000610fc182610f05565b9150610fcc83610f05565b9250828202610fda81610f05565b91507f8000000000000000000000000000000000000000000000000000000000000000841460008412161561101257611011610c24565b5b828205841483151761102757611026610c24565b5b509291505056fea2646970667358221220d998a869131e291672e736ec210615141687abada71da7fc02952e4b4c29a70064736f6c63430008130033","linkReferences":{}},"methodIdentifiers":{"MINIMUM_USD()":"6b69a592","cheaperWithdraw()":"be2693f0","fund()":"b60d4288","getAddressToAmountFunded(address)":"0343fb25","getFunder(uint256)":"d7b4750c","getOwner()":"893d20e8","getVersion()":"0d8e6e2c","withdraw()":"3ccfd60b"},"id":23}